:100000005DC00000A2C20000C7C200007EC00000A8
:100010007CC000007AC0000078C000003AC2000036
:1000200074C0000072C0000070C000000C947C0A14
:100030006CC000006AC0000068C0000066C000001C
:10004000DDC2000062C000003AC100006AC10000C9
:100050005CC000005AC0000058C0000056C000003C
:1000600054C0000052C0000002000000080002015D
:10007000000003040700000000000000000102046B
:10008000081020408001020408102001020408101A
:100090002004040404040404040202020202020311
:1000A000030303030300000000250028002B0000C9
:1000B000000000240027002A0000BF0111241FBEF9
:1000C000CFEFD8E0DEBFCDBF11E0A0E0B1E0E6E4C5
:1000D000F6E102C005900D92A033B107D9F728E0F0
:1000E000A0E3B1E001C01D92A337B207E1F710E031
:1000F000CEE5D0E004C02197FE010E941B0BCD3558
:10010000D107C9F771D20C94210B7ACFFC01918DE4
:10011000228D892F90E0805C9F4F821B91098F7305
:1001200099270895FC01918D828D981731F0828D69
:10013000E80FF11D858D90E008958FEF9FEF0895F2
:10014000FC01918D828D981761F0828DDF01A80FDF
:10015000B11D5D968C91928D9F5F9F73928F90E001
:1001600008958FEF9FEF0895FC01538D448D252F47
:1001700030E0842F90E0821B930B541710F0CF9641
:1001800008950197089586EB91E0892B41F080E076
:1001900090E0892B21F0EAD081110C9400000895A1
:1001A000FC01848DDF01A80FB11DA35ABF4F2C9114
:1001B000848D90E001968F739927848FA689B789E3
:1001C0002C93A089B1898C91837080648C93938DDA
:1001D000848D981306C00288F389E02D80818F7D7D
:1001E00080830895EF92FF920F931F93CF93DF9335
:1001F000EC0181E0888F9B8D8C8D981305C0E88978
:10020000F989808185FD25C0F62E0B8D10E00F5FEA
:100210001F4F0F731127E02E8C8DE8120BC00FB605
:1002200007FCFACFE889F989808185FFF5CFCE01F7
:10023000B7DFF2CF8B8DFE01E80FF11DE35AFF4FC0
:10024000F0829FB7F8940B8FEA89FB8980818062E6
:100250000AC09FB7F894EE89FF896083E889F9891D
:1002600080818370806480839FBF81E090E0DF9114
:10027000CF911F910F91FF90EF900895CF93DF934F
:10028000EC01888D8823C1F0EA89FB89808185FD96
:1002900005C0A889B9898C9186FD0EC00FB607FCF0
:1002A000F5CF808185FFF2CFA889B9898C9185FF30
:1002B000EDCFCE0175DFE8CFDF91CF9108951F928A
:1002C0000F920FB60F9211242F938F939F93EF935A
:1002D000FF93E0914001F09141018081E09146015E
:1002E000F091470182FD12C09081809149018F5F9A
:1002F0008F7320914A01821751F0E0914901F0E09B
:10030000E05DFE4F958F8093490101C08081FF9190
:10031000EF919F918F912F910F900FBE0F901F9093
:1003200018951F920F920FB60F9211242F933F939F
:100330004F935F936F937F938F939F93AF93BF93ED
:10034000EF93FF9380E391E02BDFFF91EF91BF915B
:10035000AF919F918F917F916F915F914F913F915D
:100360002F910F900FBE0F901F90189580E391E092
:10037000CDDE21E0892B09F420E0822F0895E0E30F
:10038000F1E01382128288EE93E0A0E0B0E0848373
:100390009583A683B7838BE091E09183808385EC7E
:1003A00090E09587848784EC90E09787868780EC3F
:1003B00090E0918B808B81EC90E0938B828B82EC30
:1003C00090E0958B848B86EC90E0978B868B118EDA
:1003D000128E138E148E0895CF92DF92EF92FF92B9
:1003E0000F931F93CF93DF936C017A018B01C0E0D1
:1003F000D0E0CE15DF0581F0D8016D918D01D601D9
:10040000ED91FC910190F081E02DC6010995892BB9
:1004100011F02196EECF7E01C701DF91CF911F91A0
:100420000F91FF90EF90DF90CF900895813039F0D9
:1004300018F0823051F0089510926E000895809166
:100440006F008D7F80936F000895809170008D7F85
:100450008093700081E08093B0008091B100887F2C
:1004600084608093B1001092B3000895CF93C82F99
:1004700080910001C81307C0E8E6F0E084919FEF87
:100480009093000101C08FEFD1DF60E08C2FCF91FE
:100490009FC11F920F920FB60F9211242F933F937B
:1004A0004F935F936F937F938F939F93AF93BF937C
:1004B000EF93FF938091D0019091D101A091D2014F
:1004C000B091D301892B8A2B8B2B51F19091CD01C7
:1004D000E091CE01F091CF018081892780838091C6
:1004E000D0019091D101A091D201B091D301181601
:1004F00019061A061B06BCF48091D0019091D10117
:10050000A091D201B091D3010197A109B1098093C3
:10051000D0019093D101A093D201B093D30103C035
:1005200080910001A3DFFF91EF91BF91AF919F9167
:100530008F917F916F915F914F913F912F910F908C
:100540000FBE0F901F90189508951F920F920FB62F
:100550000F9211242F933F934F935F936F937F9349
:100560008F939F93AF93BF93EF93FF93E09101011C
:10057000F09102010995FF91EF91BF91AF919F9189
:100580008F917F916F915F914F913F912F910F903C
:100590000FBE0F901F9018951F920F920FB60F92DB
:1005A00011242F933F934F935F936F937F938F9378
:1005B0009F93AF93BF93EF93FF93E0910301F0916B
:1005C00004010995FF91EF91BF91AF919F918F9198
:1005D0007F916F915F914F913F912F910F900FBE3F
:1005E0000F901F901895089553D0FDDF7FD1C3EC75
:1005F000D0E085D12097E9F3C6DDFBCF1F920F92A3
:100600000FB60F9211242F933F938F939F93AF9325
:10061000BF938091D5019091D601A091D701B0915F
:10062000D8013091D40123E0230F2D3720F4019617
:10063000A11DB11D05C026E8230F0296A11DB11D05
:100640002093D4018093D5019093D601A093D70134
:10065000B093D8018091D9019091DA01A091DB018A
:10066000B091DC010196A11DB11D8093D901909339
:10067000DA01A093DB01B093DC01BF91AF919F91B0
:100680008F913F912F910F900FBE0F901F90189553
:10069000789484B5826084BD84B5816084BD85B55D
:1006A000826085BD85B5816085BDEEE6F0E0808124
:1006B00081608083E1E8F0E0108280818260808345
:1006C000808181608083E0E8F0E0808181608083C8
:1006D000E1EBF0E0808184608083E0EBF0E08081FA
:1006E00081608083EAE7F0E080818460808380819C
:1006F0008260808380818160808380818068808344
:100700001092C1000895833081F028F4813099F06F
:100710008230A1F008958730A9F08830B9F0843094
:10072000D1F4809180008F7D03C0809180008F770D
:1007300080938000089584B58F7702C084B58F7D43
:1007400084BD08958091B0008F7703C08091B00080
:100750008F7D8093B0000895CF93DF9390E0FC01EC
:10076000E358FF4F2491FC01EF56FF4F84918823FB
:1007700061F190E0880F991FFC01E155FF4FC59191
:10078000D491FC01EB55FF4FA591B491611109C0C3
:100790009FB7F8948881209582238883EC912E233B
:1007A0000BC0623061F49FB7F8948881322F309586
:1007B00083238883EC912E2B2C939FBF06C08FB789
:1007C000F894E8812E2B28838FBFDF91CF91089575
:1007D0001F93CF93DF93282F30E0F901E759FF4FA4
:1007E0008491F901E358FF4FD491F901EF56FF4F7F
:1007F000C491CC23B9F0162F811185DFEC2FF0E0E6
:10080000EE0FFF1FEB55FF4FA591B4919FB7F894E2
:10081000111104C08C91D095D82302C0EC91DE2B2D
:10082000DC939FBFDF91CF911F910895CF93DF930A
:1008300000D000D0CDB7DEB73FD269837A838B83F7
:100840009C8361E086E0C4DF42EE54E060E070E04B
:10085000CE01019677D360E086E0BADF42EE54E045
:1008600060E070E0CE0101966DD3EBCFCF93DF93C4
:1008700000D000D0CDB7DEB71FD269837A838B83D7
:100880009C8361E087E0A4DF44EC59E060E070E025
:10089000CE01019657D360E087E09ADF44EC59E03F
:1008A00060E070E0CE0101964DD3EBCFCF93DF93A4
:1008B00000D000D0CDB7DEB7FFD169837A838B83B8
:1008C0009C8361E088E084DF48E853E160E070E009
:1008D000CE01019637D360E088E07ADF48E853E143
:1008E00060E070E0CE0101962DD3EBCF61E086E0B1
:1008F00033DF61E087E030DF61E088E02DCFAF9249
:10090000BF92CF92DF92EF92FF920F93A12CB12C66
:10091000C12CD12CE12CF12C01E020E030E048EC9E
:1009200050E069E171E086E194E08DD002E020E0E2
:1009300030E048EC50E06FE171E086E394E083D072
:1009400003E020E030E048EC50E065E271E086E54D
:1009500094E079D00F91FF90EF90DF90CF90BF900F
:10096000AF9065C1E0910602F0910702808181118C
:1009700004C08FEF9FEFDC010EC0E0910602F09102
:1009800007020780F085E02D0084F185E02D82814B
:100990009381A481B5818093DE019093DF01A093C0
:1009A000E001B093E1010895CF92DF92EF92FF92C0
:1009B000E0918C02F0918D0262837383848395832E
:1009C000C090E801D090E901E090EA01F090EB01DD
:1009D0006C157D058E059F0578F460918C027091F1
:1009E0008D0280910402909105026E5F7F4FFF900F
:1009F000EF90DF90CF90B8C56B017C0160918C02C5
:100A000070918D0280910602909107026E5F7F4F78
:100A1000ABD58091DE019091DF01A091E001B09112
:100A2000E101C816D906EA06FB0640F4C092DE01D1
:100A3000D092DF01E092E001F092E101FF90EF90AF
:100A4000DF90CF9008955F926F927F928F929F92E6
:100A5000AF92BF92CF92DF92EF92FF920F931F93CC
:100A6000CF93DF934C01162F572E5A013901C11431
:100A7000D10431F4CA012DD36C01892B09F4C6C00D
:100A80008AE290E026D3EC01009779F0DC8ECB8EE1
:100A900021E0A21AB108CA0CDB1CBC01635E7F4FC7
:100AA000E12FF52DCF01089606C0C601A2D3AEC036
:100AB000E817F90749F09F014191DB014D93BD0112
:100AC000D9012C912111F4CF1CA2102F0A3008F06B
:100AD00019E01A8F5E01B2E0AB0EB11CC5011FD543
:100AE000CE010E961CD5DB87CA878AE090E0A0E095
:100AF000B0E0811B9109A109B1098E879F87A88B5E
:100B0000B98BDF8BCE8B1DA21EA21FA218A619A621
:100B1000A301B401C60197D399838883E114F1043A
:100B200019F0F701D183C0830FB6F8940F9280912A
:100B3000EC018F5F8093EC0180918C0290918D028B
:100B4000892B89F5D0938D02C0938C028091EC01A2
:100B50008130C1F58EE1E82E82E0F82E9CE8C92EA6
:100B600092E0D92EC701CAD4FBE0EF0EF11CCE14DF
:100B7000DF04C1F783E192E0C1D488E092E0BED403
:100B800089EF91E0BBD48EEE91E0B8D483E192E09E
:100B9000909307028093060288E092E0909305020A
:100BA000809304020FC08091E60181110BC0E09197
:100BB0008C02F0918D02828D081720F0D0938D0267
:100BC000C0938C028091E2018F5F8093E2018A8D55
:100BD0009091E701981710F48093E7012BE0829F32
:100BE000C0011124B501825E9D4F9DD40F900FBEB0
:100BF0008091E601882341F0E0918C02F0918D0212
:100C0000828D801708F4C6D381E001C08FEFDF9199
:100C1000CF911F910F91FF90EF90DF90CF90BF90F9
:100C2000AF909F908F907F906F905F900895AF925C
:100C3000BF92CF92DF92EF92FF920F93A12CB12C33
:100C4000C12CD12CE12CF12C00E020E030E045E576
:100C500050E06BE271E08FEE97E0F5DE8130F1F469
:100C6000F8944FEF5FEFBA014093DE015093DF013C
:100C70006093E0017093E1018093E6011092E80136
:100C80001092E9011092EA011092EB010F91FF908E
:100C9000EF90DF90CF90BF90AF9041C30F91FF9046
:100CA000EF90DF90CF90BF90AF9008958091DD01DD
:100CB0008F5F8093DD0108950FB6F8940F926091D5
:100CC000E8017091E9018091EA019091EB010F90A8
:100CD0000FBE08958F929F92AF92BF92EF92FF92B4
:100CE0000F931F93CF93DF938091DD018111A9C0F2
:100CF0008091E8019091E901A091EA01B091EB01A6
:100D00000196A11DB11D8093E8019093E901A09384
:100D1000EA01B093EB018090E8019090E901A09086
:100D2000EA01B090EB0181149104A104B104B1F483
:100D300080910602909107022091040230910502F1
:100D400030930702209306029093050280930402D9
:100D50008091E3018F5F8093E30104DE8091DE01E7
:100D60009091DF01A091E001B091E101C0E088160F
:100D70009906AA06BB0608F454C0DBE0E09106021F
:100D8000F09107028081811104C08FEF9FEFDC0199
:100D900013C0E0910602F09107020780F085E02D74
:100DA00000851185F80182819381A481B58188161F
:100DB0009906AA06BB0648F48093DE019093DF01F2
:100DC000A093E001B093E1012CC07801F2E0EF0EB6
:100DD000F11CC7010DD4D80158968D919C9159975B
:100DE000892B19F0C8010E9603D4F801828D9091D9
:100DF000E701981710F48093E701D89FC0011124F0
:100E0000B701825E9D4F8FD3E0918C02F0918D02ED
:100E1000D8015A969C91828D981708F4AFCFC1E003
:100E2000ADCFE0918C02F0918D02E28DBBE0EB9FA3
:100E3000F0011124E25EFD4F8081823040F0C1E07C
:100E400006C08091E5018F5F8093E501C0E080914D
:100E5000E4018111C1E08C2FDF91CF911F910F919F
:100E6000FF90EF90BF90AF909F908F900895EF927A
:100E7000FF920F931F93CF93DF930FB6F8940F92C7
:100E80008091DD0181508093DD018091DD01882317
:100E900011F080E04EC08091EC018823D1F38BE00B
:100EA000F82EEE24E3948091F901882339F1E09142
:100EB0000002F0910102C085D185CE010E9698D333
:100EC0008E010E5F1F4FC80193D38A8D9091E70169
:100ED000981710F48093E701F89EC0011124B8011F
:100EE000825E9D4F20D3E0918C02F0918D029A8D0D
:100EF000828D9817C0F2E092E401D5CF8091E50190
:100F0000811108C08091E401813009F0C2CF42D242
:100F100081E00FC0C1E08091E501882399F3DADE1A
:100F20008111C093E4018091E50181508093E50136
:100F3000F2CF0F900FBEDF91CF911F910F91FF90D5
:100F4000EF900895CF92DF92EF92FF92CF93DF93CD
:100F5000EC016A017B01AADE4091E8015091E901B0
:100F60006091EA017091EB0188819981AA81BB812E
:100F7000C80ED91EEA1EFB1E481759076A077B07D1
:100F800030F4C816D906EA06FB0660F405C0C81698
:100F9000D906EA06FB0640F081E04C155D056E05BA
:100FA0007F0518F080E001C081E0C882D982EA8222
:100FB000FB82882349F080918C0290918D020296E9
:100FC00017D3C701B601F0DC52DF811101C0E2D1B5
:100FD000DF91CF91FF90EF90DF90CF9008958091B7
:100FE000ED01882321F162DEC091EE0140DFCC23C8
:100FF000B1F30FB6F8940F92E091F501F091F6017C
:10100000C085D185CE010296F3D28091EC0181504A
:101010008093EC018091ED0181508093ED010F9060
:101020000FBE8B8D9C8DE5D0CE01E3D0D8CF8091C3
:101030001E028230A0F2AED1D2CF8091DD01882392
:1010400021F081E08093E40108951092E4019BE097
:10105000E091E7019E9FF0011124E25EFD4F808147
:10106000811106C08091E70181508093E701F0CFA4
:101070008091E70190E04BE0489F9001499F300D3F
:101080001124F901E25EFD4FA181B28114960D9009
:10109000BC91A02DB283A1832F5D3D4FA217B30752
:1010A00031F414962D913C911597328321832BE0D6
:1010B000289FF001299FF00D1124E25EFD4F018071
:1010C000F281E02D8085918590938D0280938C0232
:1010D00008950F931F93CF93DF93EC01E7DD809189
:1010E0008E02811121C088E992E09093940280934E
:1010F000930210929602109295028BED95E09093D8
:101100009202809391021092900210928F0290931B
:101110009B0280939A028FE892E0909399028093C9
:10112000980281E080938E02209709F02496CE01E8
:1011300001978A3D954008F053C0E0919302F091E9
:101140009402A3E9B2E0828193818C179D0728F075
:1011500022E0EF38F20749F443C0208131812115A4
:101160003105B1F3DF01F901EECF0D911C9111971B
:101170000C5F1F4F208131812D933C938C1B9D0B65
:101180008930910500F1DF01AC0FBD1F13969C93D0
:101190008E931297D383C28312964D915C911397CD
:1011A00063E972E0EB0188819981EC012A813B813E
:1011B0002417350710F4BC01F5CF11969C938E933C
:1011C000EB01B983A88380910501909106012281EA
:1011D0003381821B930B909306018093050102C01B
:1011E00000E010E044DEC801DF91CF911F910F9124
:1011F0000895CF93DF93009719F1EC01249756DD02
:101200008A819B81E3E9F2E0A081B18112962D9160
:101210003C9113972817390710F4FD01F5CFB983D6
:10122000A883D183C0832091050130910601820FEC
:10123000931F9093060180930501DF91CF9117CE04
:10124000DF91CF91089531E1FC013083319722E2A3
:1012500020833197A3E3A083319760833197708314
:1012600031971082319760E860833197108231970F
:1012700062E06083319763E06083319764E060836C
:10128000319765E06083319766E06083319767E06E
:101290006083319768E06083319769E060833197BC
:1012A00060E1608331973083319732E13083319749
:1012B00033E13083319734E13083319735E1308346
:1012C000319736E13083319737E13083319738E118
:1012D0003083319739E13083319730E23083319771
:1012E00031E2308331972083319723E22083319795
:1012F000408331975083319726E22083319727E24C
:101300002083319728E22083319729E22083319787
:1013100020E32083319721E320838697089589E095
:101320008093890083EC809388008BE08093810018
:10133000EFE6F0E0808182608083A0918C02B09122
:101340008D02CD91CDBFDD91DEBFFF91EF91DF9199
:10135000CF91BF91AF919F918F917F916F915F914D
:101360004F913F912F911F910F91FF90EF90DF9040
:10137000CF90BF90AF909F908F907F906F905F9035
:101380004F903F902F901F900F900FBE0F90089599
:1013900081E008950F920FB6F8940F921F921124D6
:1013A0002F923F924F925F926F927F928F929F9275
:1013B000AF92BF92CF92DF92EF92FF920F931F9363
:1013C0002F933F934F935F936F937F938F939F934D
:1013D000AF93BF93CF93DF93EF93FF93A0918C02D2
:1013E000B0918D020DB60D920EB60D9226DEA09133
:1013F0008C02B0918D02CD91CDBFDD91DEBFFF910A
:10140000EF91DF91CF91BF91AF919F918F917F919C
:101410006F915F914F913F912F911F910F91FF908D
:10142000EF90DF90CF90BF90AF909F908F907F9084
:101430006F905F904F903F902F901F900F900FBE36
:101440000F9008950F920FB6F8940F921F921124E7
:101450002F923F924F925F926F927F928F929F92C4
:10146000AF92BF92CF92DF92EF92FF920F931F93B2
:101470002F933F934F935F936F937F938F939F939C
:10148000AF93BF93CF93DF93EF93FF93A0918C0221
:10149000B0918D020DB60D920EB60D921BDC81112E
:1014A000CCDDA0918C02B0918D02CD91CDBFDD91AC
:1014B000DEBFFF91EF91DF91CF91BF91AF919F91EF
:1014C0008F917F916F915F914F913F912F911F91DC
:1014D0000F91FF90EF90DF90CF90BF90AF909F90D3
:1014E0008F907F906F905F904F903F902F901F90C4
:1014F0000F900FBE0F900895A5DF1895FC0103967D
:10150000928381834FEF5FEFBA01438354836583F6
:101510007683908787839287818710820895FC0164
:10152000138612860895CF93DF939C01FB01DC01A3
:101530001196CD91DC911297D583C4838E819F81C2
:10154000978386838E819F81DC0115967C936E93B1
:1015500014977F836E8333872287F90180818F5FA1
:101560008083DF91CF910895EF92FF920F931F93A5
:10157000CF93DF937C01FB014081518162817381B4
:101580004F3F8FEF58076807780721F4E701A985D7
:10159000BA8512C0D701139614968D919C91159718
:1015A000EC01088119812A813B81401751076207AC
:1015B000730710F0DC01F0CF14968D919C91159774
:1015C00095838483EC01FF83EE83B783A68315960E
:1015D000FC93EE931497F386E286F70180818F5F88
:1015E0008083DF91CF911F910F91FF90EF9008952D
:1015F000CF93DF93FC01A285B385848195812681F9
:101600003781EC013F832E83C681D7819D838C83F4
:1016100011968D919C911297E817F90721F4129673
:10162000DC93CE931197138612868C9181508C9304
:10163000DF91CF910895EE0FFF1F0590F491E02DFB
:061640000994F894FFCFAD
:10164600FFA402A402DB0500000000F200EC01B4D6
:10165600003E018600A00092005461736B31005475
:1016660061736B32005461736B330049444C45001F
:00000001FF
