:100000005DC000004BC3000070C300007CC0000056
:100010007AC0000078C0000076C00000C3C20000B3
:1000200072C0000070C000006EC000006CC0000014
:100030006AC0000068C0000066C0000064C0000024
:1000400086C3000060C000009BC10000CBC100005F
:100050005AC0000058C0000056C0000054C0000044
:1000600052C0000050C00000020000000800020161
:10007000000003040700000000000000000102046B
:10008000081020408001020408102001020408101A
:100090002004040404040404040202020202020311
:1000A000030303030300000000250028002B0000C9
:1000B000000000240027002A0000200211241FBE97
:1000C000CFEFD8E0DEBFCDBF11E0A0E0B1E0E6EBBE
:1000D000FFE002C005900D92AC36B107D9F722E0DF
:1000E000ACE6B1E001C01D92AB32B207E1F710E01F
:1000F000CEE5D0E003C02197FE0134D6CD35D1073F
:10010000D1F71BD356C77CCFFC01918D228D892F4F
:1001100090E0805C9F4F821B91098F73992708950F
:10012000FC01918D828D981731F0828DE80FF11DC1
:10013000858D90E008958FEF9FEF0895FC01918DDC
:10014000828D981761F0828DDF01A80FB11D5D9639
:100150008C91928D9F5F9F73928F90E008958FEFA7
:100160009FEF0895FC01538D448D252F30E0842F9F
:1001700090E0821B930B541710F0CF9608950197CF
:10018000089587E192E0892B41F080E090E0892B8F
:1001900021F04DD181110C9400000895FC01848D53
:1001A000DF01A80FB11DA35ABF4F2C91848D90E0A1
:1001B00001968F739927848FA689B7892C93A0897C
:1001C000B1898C91837080648C93938D848D981306
:1001D00006C00288F389E02D80818F7D8083089599
:1001E000EF92FF920F931F93CF93DF93EC0181E087
:1001F000888F9B8D8C8D981305C0E889F989808143
:1002000085FD25C0F62E0B8D10E00F5F1F4F0F737D
:100210001127E02E8C8DE8120BC00FB607FCFACF29
:10022000E889F989808185FFF5CFCE01B7DFF2CF6C
:100230008B8DFE01E80FF11DE35AFF4FF0829FB74F
:10024000F8940B8FEA89FB89808180620AC09FB78E
:10025000F894EE89FF896083E889F9898081837049
:10026000806480839FBF81E090E0DF91CF911F91F8
:100270000F91FF90EF900895CF93DF93EC01888D5D
:100280008823C1F0EA89FB89808185FD05C0A889A2
:10029000B9898C9186FD0EC00FB607FCF5CF808121
:1002A00085FFF2CFA889B9898C9185FFEDCFCE016A
:1002B00075DFE8CFDF91CF910895CF92DF92EF9273
:1002C000FF921F93CF93DF93EC016A017B01122F02
:1002D000E889F98982E080834115514E61057105F5
:1002E000A9F060E079E08DE390E0A701960118D5D0
:1002F000DA01C9010197A109B109B695A7959795AA
:1003000087959C01211580E13807A0F0E889F989DB
:10031000108260E874E88EE190E0A701960100D5B4
:10032000DA01C9010197A109B109B695A795979579
:1003300087959C01EC85FD853083EE85FF852083C4
:10034000188EEC89FD891083EA89FB8980818061A0
:100350008083EA89FB89808188608083EA89FB89C0
:10036000808180688083EA89FB8980818F7D80839A
:10037000DF91CF911F91FF90EF90DF90CF90089584
:100380001F920F920FB60F9211242F938F939F936A
:10039000EF93FF93E0917C01F0917D018081E091EA
:1003A0008201F091830182FD12C0908180918501CC
:1003B0008F5F8F7320918601821751F0E091850144
:1003C000F0E0E459FE4F958F8093850101C0808154
:1003D000FF91EF919F918F912F910F900FBE0F90F2
:1003E0001F9018951F920F920FB60F9211242F9302
:1003F0003F934F935F936F937F938F939F93AF93AD
:10040000BF93EF93FF938CE691E0C8DEFF91EF91ED
:10041000BF91AF919F918F917F916F915F914F911C
:100420003F912F910F900FBE0F901F9018958CE663
:1004300091E06ADE21E0892B09F420E0822F089503
:10044000ECE6F1E01382128288EE93E0A0E0B0E0E7
:1004500084839583A683B78381E191E09183808330
:1004600085EC90E09587848784EC90E09787868779
:1004700080EC90E0918B808B81EC90E0938B828B71
:1004800082EC90E0958B848B86EC90E0978B868B4A
:10049000118E128E138E148E0895CF92DF92EF92EA
:1004A000FF920F931F93CF93DF936C017A018B011F
:1004B000C0E0D0E0CE15DF0581F0D8016D918D014F
:1004C000D601ED91FC910190F081E02DC6010995D6
:1004D000892B11F02196EECF7E01C701DF91CF91DC
:1004E0001F910F91FF90EF90DF90CF9008956115CD
:1004F000710579F0FB0101900020E9F73197AF0118
:10050000461B570BDC01ED91FC910280F381E02D3D
:10051000099480E090E008956FE171E0E8CF0F93D7
:100520001F93CF93DF93EC01E2DF8C01CE01F4DF68
:10053000800F911FDF91CF911F910F91089581300E
:1005400039F018F0823051F0089510926E0008953D
:1005500080916F008D7F80936F000895809170006F
:100560008D7F8093700081E08093B0008091B10016
:10057000887F84608093B1001092B3000895CF9378
:10058000C82F80910601C81307C0E8E6F0E0849107
:100590009FEF9093060101C08FEFD1DF60E08C2FB9
:1005A000CF91CBC11F920F920FB60F9211242F93B0
:1005B0003F934F935F936F937F938F939F93AF93EB
:1005C000BF93EF93FF9380910C0290910D02A09145
:1005D0000E02B0910F02892B8A2B8B2B51F1909137
:1005E0000902E0910A02F0910B0280818927808341
:1005F00080910C0290910D02A0910E02B0910F0219
:10060000181619061A061B06BCF480910C0290916C
:100610000D02A0910E02B0910F020197A109B1093C
:1006200080930C0290930D02A0930E02B0930F02E0
:1006300003C080910601A3DFFF91EF91BF91AF91BD
:100640009F918F917F916F915F914F913F912F91EA
:100650000F900FBE0F901F90189508958230E8F408
:10066000E82FF0E0EE0FFF1FE95FFE4F718360831C
:10067000813041F0809169008C7F482B4093690064
:10068000E89A089580916900837F440F551F440FB5
:10069000551F482B40936900E99A08951F920F92C5
:1006A0000FB60F9211242F933F934F935F936F9345
:1006B0007F938F939F93AF93BF93EF93FF93E091BB
:1006C0000701F09108010995FF91EF91BF91AF915A
:1006D0009F918F917F916F915F914F913F912F915A
:1006E0000F900FBE0F901F9018951F920F920FB68C
:1006F0000F9211242F933F934F935F936F937F93A8
:100700008F939F93AF93BF93EF93FF93E091090172
:10071000F0910A010995FF91EF91BF91AF919F91DF
:100720008F917F916F915F914F913F912F910F909A
:100730000FBE0F901F90189508955FD0FDDF27D250
:10074000C1ECD0E043D22097E9F31BDDFBCF1F9231
:100750000F920FB60F9211242F933F938F939F9375
:10076000AF93BF938091110290911202A091130256
:10077000B09114023091100223E0230F2D3720F4A2
:100780000196A11DB11D05C026E8230F0296A11DEB
:10079000B11D209310028093110290931202A09336
:1007A0001302B09314028091150290911602A09149
:1007B0001702B09118020196A11DB11D8093150278
:1007C00090931602A0931702B0931802BF91AF91B5
:1007D0009F918F913F912F910F900FBE0F901F907F
:1007E00018952FB7F89460911102709112028091C0
:1007F0001302909114022FBF0895789484B58260FB
:1008000084BD84B5816084BD85B5826085BD85B5B4
:10081000816085BDEEE6F0E0808181608083E1E863
:10082000F0E010828081826080838081816080839B
:10083000E0E8F0E0808181608083E1EBF0E080819E
:1008400084608083E0EBF0E0808181608083EAE770
:10085000F0E08081846080838081826080838081F9
:10086000816080838081806880831092C1000895B8
:10087000833081F028F4813099F08230A1F008951E
:100880008730A9F08830B9F08430D1F480918000AD
:100890008F7D03C0809180008F77809380000895C2
:1008A00084B58F7702C084B58F7D84BD0895809113
:1008B000B0008F7703C08091B0008F7D8093B0002F
:1008C0000895CF93DF9390E0FC01E358FF4F24910C
:1008D000FC01EF56FF4F8491882361F190E0880F6F
:1008E000991FFC01E155FF4FC591D491FC01EB55D7
:1008F000FF4FA591B491611109C09FB7F894888109
:10090000209582238883EC912E230BC0623061F402
:100910009FB7F8948881322F309583238883EC9198
:100920002E2B2C939FBF06C08FB7F894E8812E2BF7
:1009300028838FBFDF91CF9108951F93CF93DF93CB
:10094000282F30E0F901E759FF4F8491F901E3586E
:10095000FF4FD491F901EF56FF4FC491CC23B9F06A
:10096000162F811185DFEC2FF0E0EE0FFF1FEB5506
:10097000FF4FA591B4919FB7F894111104C08C91C9
:10098000D095D82302C0EC91DE2BDC939FBFDF9182
:10099000CF911F910895CF92DF92EF92FF921F9314
:1009A000CF93DF936EE271E08CE691E0B8DDC0E0BA
:1009B000D0E011E0C730D1058CF513DFC0901D02E7
:1009C000D0901E02E0901F02F0902002DC01CB01CB
:1009D0008C199D09AE09BF0984369105A105B105A1
:1009E00048F3FFDE60931D0270931E0280931F0286
:1009F0009093200260910B0186E09FDF80910B01B4
:100A0000811106C065E371E08CE691E088DD2196F6
:100A100080910B01812780930B01CCCF81E08093E3
:100A20000B01DF91CF911F91FF90EF90DF90CF905E
:100A30000895CF92DF92EF92FF921F93CF93DF93AF
:100A400064E471E08CE691E06ADDC0E0D0E011E0A2
:100A5000C530D1058CF5C5DEC0901902D0901A02C0
:100A6000E0901B02F0901C02DC01CB018C199D0967
:100A7000AE09BF09843F9140A105B10548F3B1DE3D
:100A80006093190270931A0280931B0290931C02C8
:100A900060910C0187E051DF80910C01811106C04B
:100AA0006BE471E08CE691E03ADD219680910C01D7
:100AB000812780930C01CCCF81E080930C01DF91E2
:100AC000CF911F91FF90EF90DF90CF9008950F93FB
:100AD0001F9387DE009121021091220220912302B0
:100AE00030912402DC01CB01801B910BA20BB30BD4
:100AF000883C9105A105B10570F067E571E08CE6D1
:100B000091E00DDD41E050E06BEC74E08091250256
:100B1000909126027BD065DE6093210270932202C1
:100B200080932302909324021F910F9108950F93B5
:100B30001F9357DE0091210210912202209123027F
:100B400030912402DC01CB01801B910BA20BB30B73
:100B5000883C9105A105B10570F06CE571E08CE66B
:100B600091E0DDDC40E050E069E175E08091250234
:100B7000909126024BD035DE6093210270932202C1
:100B800080932302909324021F910F91089533D0F4
:100B9000909326028093250242E050E067E675E0DC
:100BA00080E05CDD42E050E067E975E081E056DD21
:100BB00061E087E086DE61E086E083DE26E040E0FB
:100BC00052EC61E070E08CE691E077CB80912502F9
:100BD00090912602A1D01816190664F461E671E01E
:100BE0008CE691E09CDC80912502909126026ED0EB
:100BF000FC010994089584E090E0BAD0009729F0B0
:100C0000FC0111821082138212820895CF92DF922A
:100C1000EF92FF920F931F93CF93DF936C017B01B1
:100C20008A0188E090E0A4D0FC01009709F445C057
:100C3000F182E08213830283158214821782168266
:100C4000E601A881B981109719F4998388832FC090
:100C500012968D919C911397081719078CF4B783FE
:100C6000A6831596FC93EE931497F983E8831FC02F
:100C700012962D913C911397201731073CF4DC011B
:100C800016968D919C911797009791F7B583A48341
:100C90009783868316968D919C911797009719F0EC
:100CA000EC01FD83EC831796FC93EE931697F60107
:100CB00082819381019693838283DF91CF911F91EB
:100CC0000F91FF90EF90DF90CF9008950F931F93B7
:100CD000CF93DF93DC01ED91FC913097B1F000816F
:100CE0001181A681B781109721F015961C921E9252
:100CF0001497EC01B983A883CF01D2D08A819B815C
:100D000001979B838A83C80102C080E090E0DF9155
:100D1000CF911F910F910895FC01828193810895D5
:100D2000A1E21A2EAA1BBB1BFD010DC0AA1FBB1FEF
:100D3000EE1FFF1FA217B307E407F50720F0A21B61
:100D4000B30BE40BF50B661F771F881F991F1A94CE
:100D500069F760957095809590959B01AC01BD01F8
:100D6000CF010895EE0FFF1F0590F491E02D099437
:100D70000F931F93CF93DF938230910510F482E09D
:100D800090E0E0912902F0912A0220E030E0A0E01A
:100D9000B0E0309719F140815181028113814817E9
:100DA0005907C8F08417950769F4109731F0129627
:100DB0000C93129713961C9327C00093290210934B
:100DC0002A0222C02115310519F04217530718F4E1
:100DD0009A01BD01EF01DF01F801DBCF21153105DB
:100DE000F9F0281B390B2430310580F48A819B816E
:100DF0006115710521F0FB019383828304C09093F8
:100E00002A0280932902FE01329644C0FE01E20FBD
:100E1000F31F8193919322503109398328833AC07B
:100E20002091270230912802232B41F420910201C6
:100E30003091030130932802209327022091000172
:100E4000309101012115310541F42DB73EB7409194
:100E5000040150910501241B350BE0912702F0910C
:100E60002802E217F307A0F42E1B3F0B28173907BF
:100E700078F0AC014E5F5F4F2417350748F04E0FF6
:100E80005F1F50932802409327028193919302C0E1
:100E9000E0E0F0E0CF01DF91CF911F910F91089535
:100EA000CF93DF93009709F481C0FC01329713823E
:100EB0001282A0912902B0912A02109781F4208118
:100EC0003181820F931F2091270230912802281729
:100ED000390751F5F0932802E093270267C0ED012E
:100EE00020E030E0CE17DF0740F44A815B819E01AD
:100EF00041155105F1F0EA01F5CFD383C28340815A
:100F00005181840F951FC817D90759F48881998199
:100F1000840F951F0296918380838A819B8193839E
:100F200082832115310529F4F0932A02E0932902E6
:100F30003DC0E901FB83EA8349915991C40FD51F54
:100F4000EC17FD0761F480819181840F951F029653
:100F5000E90199838883828193819B838A83E0E07E
:100F6000F0E012968D919C911397009719F0FD0176
:100F7000DC01F7CF8D919C9111979D012E5F3F4F22
:100F8000820F931F209127023091280228173907DA
:100F900069F4309729F410922A021092290202C0B3
:100FA00013821282B0932802A0932702DF91CF917F
:060FB0000895F894FFCF44
:100FB60000002B028000FF2D032D0301010000001D
:100FC60000F0004D02B2003C0184009E0090000D2E
:100FD6000A006E616E00696E66006F766600746167
:100FE600736B203000626C696E6B65642079656C8A
:100FF6006C6F77007461736B203100626C696E6B85
:1010060065642072656400697372300069737231B9
:0C1016000064657175657565696E6700A2
:00000001FF
